:020000040800F2
:1000000000000220B9020008BF020008C302000875
:1000100035030008390300088103000800000000D0
:10002000000000000000000000000000511C00085B
:10003000CD03000800000000F11C0008551D000859
:10004000E5030008E5030008E5030008E5030008F0
:10005000E5030008E5030008E5030008E5030008E0
:10006000E5030008E5030008E5030008E5030008D0
:10007000E5030008E5030008E5030008E5030008C0
:10008000E5030008E5030008E5030008E5030008B0
:10009000E5030008E5030008E5030008E5030008A0
:1000A000E5030008E5030008E5030008E503000890
:1000B000E5030008E5030008E5030008E503000880
:1000C000E5030008E5030008E5030008E503000870
:1000D000E5030008E5030008E5030008E503000860
:1000E000E5030008E5030008E5030008E503000850
:1000F000E5030008E5030008E5030008E503000840
:10010000E5030008E5030008E5030008E50300082F
:10011000E5030008E5030008E5030008E50300081F
:10012000E5030008E5030008E5030008E50300080F
:10013000E5030008E5030008E5030008E5030008FF
:10014000E5030008E5030008E5030008E5030008EF
:10015000E5030008E5030008E5030008E5030008DF
:10016000E5030008E5030008E5030008E5030008CF
:10017000E5030008E5030008E503000800000000AF
:10018000E5030008E503000800B583B001F076F848
:10019000384B394A1360394A1360394906E052F83E
:1001A000041B43F8041B9842F9D86146354B994229
:1001B00005D20A684B6801F10C0C8868F3E72E4BF6
:1001C0001A68314B9A4200D0FEE72C4B1A682F4B2D
:1001D0009A42F9D1274B2E4A13602E4A13602E4AB9
:1001E00000E002462D4B9A4209D2104650F8083BD7
:1001F00051689942F5D9002243F8042BF9E7244BC2
:100200001B6813B9234B1B6803B1FEE701F0EAF842
:10021000694601A800F07AFE214C224BE41AA41092
:10022000002504E01F4B53F8253098470135AC42B8
:10023000F8DC1D4C1D4BE41AA410002504E01B4BF8
:1002400053F8253098470135AC42F8DC0099019805
:1002500001F0F8FA0546164C164BE41AA41004E017
:10026000013C144B53F824309847002CF8DC284606
:1002700000F0E8FDBABADECA0000002078000020D5
:10028000E8030008000400087856341232547698C7
:100290007C000020EC2F012000040008100400085E
:1002A00010040008100400081004000810040008DE
:1002B000100400081004000808B5FFF765FF00BE31
:1002C000FEE71EF0040F0CBFEFF30880EFF3098088
:1002D0007146414A10472DE9F04182B004460D466F
:1002E000124B5F6BD3F838809E6A1B6B13F0020FC2
:1002F00003D00E4BDB6A002B0BDB0D4800F09AFE9F
:10030000009543463A463146204600F0BDFE00BE09
:10031000FEE74BF6AB6100F031FF0028EDD0034B58
:100320004FF00042DA6202B0BDE8F08100ED00E07B
:100330003844000800BEFEE71EF0040F0CBFEFF3C8
:100340000880EFF309807146244A10472DE9F041F7
:1003500082B004460D46084B5F6BD3F838809E6A26
:10036000064800F067FE009543463A46314620466F
:1003700000F08AFE00BEFEE700ED00E04844000801
:100380001EF0040F0CBFEFF30880EFF309807146F5
:10039000134A10472DE9F04182B004460D46084B40
:1003A0005F6BD3F838809E6A064800F043FE0095E4
:1003B00043463A463146204600F066FE00BEFEE760
:1003C00000ED00E05444000800BEFEE700BEFEE77A
:1003D00000BEFEE770470000D70200084D0300088A
:0803E0009503000800BEFEE7D2
:1003E8003C490008000000207C0000203C4900082F
:1003F80000000010000000107C000020F02F0120F9
:080408000000001000000010CC
:1004100010B504460E4B18784FF47A73B3FBF0F323
:100420000C4A1068B0FBF3F000F09CF868B90F2C90
:1004300001D901200AE0002221464FF0FF3000F0F0
:100440004BF8054B1C60002000E0012010BD00BFF0
:10045000040000200C0000200800002008B50B4B11
:100460001A6842F400721A601A6842F480621A60D4
:100470001A6842F480721A60032000F00FF80F200F
:10048000FFF7C6FF01F07EFA002008BD003C0240E5
:10049000014B1868704700BF8000002010B504466B
:1004A000C31E042B0FD80A4AD36823F4E0631B044D
:1004B0001B0C240204F4E064234343F0BF6343F4C1
:1004C0000033D36010BD9221024800F093FFEAE7A9
:1004D00000ED00E06042000870B505460C46164687
:1004E0000F2A25D80F2C28D81B4BDB68C3F3022317
:1004F000C3F10701042928BF04211A1D062A21D9A6
:10050000033B4FF0FF3202FA01F124EA01049C4060
:1005100002FA03F326EA03063443002D14DB240118
:10052000E4B205F1604505F5614585F8004370BD0D
:10053000AA210A4800F05EFFD4E7AB21074800F08B
:1005400059FFD1E70023DCE705F00F052401E4B2F1
:10055000034B5C55EBE700BF00ED00E06042000894
:1005600014ED00E00138B0F1807F0BD24FF0E023B2
:100570005861054AF02182F8231000209861072273
:100580001A6170470120704700ED00E010B5044685
:10059000042800D040B9042C0CD04FF0E02213699D
:1005A00023F00403136110BD40F2C911054800F0A7
:1005B00021FFF0E74FF0E022136943F004031361D9
:1005C000F1E700BF60420008002800F0588270B5D3
:1005D00082B0044603680F2B39D8236813F0010F4B
:1005E0004DD063682BB1B3F5803F02D0B3F5A02F97
:1005F00032D1804B9B6803F00C03042B36D07D4B2B
:100600009B6803F00C03082B2BD06368B3F5803F85
:100610005FD0B3F5A02F62D0764B1A6822F48032F7
:100620001A601A6822F480221A606368002B60D076
:10063000FFF72EFF05466F4B1B6813F4003F1ED1DA
:10064000FFF726FF401B6428F5D903201EE2E821AE
:10065000694800F0CFFEC0E7ED21674800F0CAFE10
:10066000C7E7644B5B6813F4800FCED0614B1B6807
:1006700013F4003F03D06368002B00F0028223686C
:1006800013F0020F66D0E368012B41D823691F2BBA
:1006900044D8584B9B6813F00C0F4AD0554B9B68BD
:1006A00003F00C03082B3FD0E368002B77D0534BAB
:1006B00001221A60FFF7ECFE05464E4B1B6813F053
:1006C000020F63D1FFF7E4FE401B0228F5D9032097
:1006D000DCE1484A136843F480331360A5E7454BD7
:1006E0001A6842F480221A601A6842F480321A6052
:1006F0009BE7FFF7CDFE05463E4B1B6813F4003F1A
:10070000BDD0FFF7C5FE401B6428F5D90320BDE12D
:1007100040F21F11384800F06DFEB7E74FF49071BA
:10072000354800F067FEB4E7324B5B6813F4800F86
:10073000BAD1304B1B6813F0020F03D0E368012BD2
:1007400040F0A1812B4A136823F0F803216943EAA2
:10075000C1031360236813F0080F51D06369012BA4
:100760002FD863699BB3254B0122C3F8802EFFF776
:100770008FFE05461F4B5B6F13F0020F40D1FFF752
:1007800087FE401B0228F5D903207FE1194A136830
:1007900023F0F803216943EAC1031360DAE7174B3A
:1007A00000221A60FFF774FE0546124B1B6813F017
:1007B000020FCFD0FFF76CFE401B0228F5D90320B3
:1007C00064E14FF4B0710C4800F014FEC9E70B4B24
:1007D0000022C3F8802EFFF75BFE0546054B5B6FDA
:1007E00013F0020F0CD0FFF753FE401B0228F5D97F
:1007F00003204BE1003802409442000800004742C9
:10080000236813F0040F7CD0A368012B01D9052BBA
:1008100038D1A34B1B6C13F0805F39D100230193B7
:100820009F4B1A6C42F080521A641B6C03F0805389
:100830000193019B01259B4B1B6813F4807F29D0FA
:10084000A368012B3AD0052B3ED0954B1A6F22F0AE
:1008500001021A671A6F22F004021A67A368002BBC
:100860003CD0FFF715FE06468D4B1B6F13F0020FB1
:1008700045D1FFF70DFE801B41F288339842F3D932
:10088000032003E14FF4C671874800F0B3FDC0E7D1
:100890000025D0E7834A136843F480731360FFF7A1
:1008A000F7FD06467F4B1B6813F4807FC8D1FFF726
:1008B000EFFD801B0228F5D90320E7E0784A136F8B
:1008C00043F001031367C9E7754B1A6F42F0040246
:1008D0001A671A6F42F001021A67BFE7FFF7D8FDE7
:1008E00006466F4B1B6F13F0020F08D0FFF7D0FDC9
:1008F000801B41F288339842F3D90320C6E0002DD3
:100900003BD1A369022B3ED8A369002B00F0BD8028
:10091000634A926802F00C02082A00F09080022BD1
:1009200079D1E36913B1B3F5800F32D1236A3F2B3C
:1009300035D8636A323BB3F5BF7F36D8A36A022B42
:1009400005D0042B03D0062B01D0082B33D1E36A4A
:10095000023B0D2B35D8554B00221A66FFF798FD48
:1009600005464F4B1B6813F0007F30D0FFF790FD1A
:10097000401B0228F5D9032088E0494A136C23F074
:1009800080531364BDE740F2CF11474800F032FDB9
:10099000BAE74FF4EC71444800F02CFDC6E740F292
:1009A000D911414800F026FDC3E74FF4ED713E48F0
:1009B00000F020FDC2E740F2DB113B4800F01AFDD9
:1009C000C5E74FF4EE71384800F014FDC3E7E36962
:1009D000226A1343626A43EA8213A26A5208013A06
:1009E00043EA0243E26A43EA02632D4A53602F4B13
:1009F00001221A66FFF74CFD0446294B1B6813F0D1
:100A0000007F06D1FFF744FD001B0228F5D9032023
:100A10003CE000203AE0254B00221A66FFF738FD43
:100A200004461F4B1B6813F0007F06D0FFF730FD14
:100A3000001B0228F5D9032028E0002026E0012B26
:100A400026D0174B5B6803F48001E269914221D103
:100A500003F03F02216A8A421ED1616A47F6C072E2
:100A60001A408A421AD103F44032A16A8A421FD145
:100A700003F07063E26A93421CD1002006E001207B
:100A80007047012002E0012000E0002002B070BDAC
:100A90000120FBE70120F9E70120F7E70120F5E756
:100AA00000380240007000409442000800004742B5
:100AB0000120EBE70120E9E708B5314B9B6803F023
:100AC0000C03042B57D0082B57D12D4B5A6802F03A
:100AD0003F025B6813F4800F2AD0294B5968C1F399
:100AE000881C4FEA4C11B1EB0C006EEB0E0E4FEA76
:100AF0008E1343EA90638101091A63EB0E03DB0056
:100B000043EA5173C90011EB0C0C43F10003590285
:100B100000234FEA4C2041EADC5102F0C9FC184B9B
:100B20005B68C3F3014301335B00B0FBF3F025E0E6
:100B3000134B5968C1F3881C4FEA4C11B1EB0C0000
:100B40006EEB0E0E4FEA8E1343EA90638101091A91
:100B500063EB0E03DB0043EA5173C90011EB0C0C8D
:100B600043F10003990200234FEA8C2041EA9C5193
:100B700002F09EFCD3E7034800E0034808BD00BF35
:100B80000038024000127A000024F400002800F02F
:100B9000F78070B50D4604460368013B0E2B6BD8F9
:100BA000072D6FD87A4B1B6803F00F03AB4208D2B6
:100BB000EBB2774A1370136803F00F03AB4240F0B7
:100BC000E180236813F0020F29D013F0040F04D042
:100BD000704A936843F4E0539360236813F0080F5E
:100BE00004D06C4A936843F460439360A3687BB17C
:100BF000802B0DD0902B0BD0A02B09D0B02B07D081
:100C0000C02B05D0D02B03D0E02B01D0F02B3FD14F
:100C1000604A936823F0F003A1680B439360236854
:100C200013F0010F4ED06368032B37D86368012B94
:100C30003AD09A1E012A3ED9564A126812F0020F83
:100C400000F0A28053498A6822F0030213438B60AC
:100C5000FFF71EFC06464F4B9B6803F00C036268CF
:100C6000B3EB820F2ED0FFF713FC801B41F28833C9
:100C70009842F0D9032076E040F25121464800F036
:100C8000B9FB8DE740F25221434800F0B3FB89E7FE
:100C900040F27521404800F0ADFBB9E74FF41F71F9
:100CA0003D4800F0A7FBC1E73A4A126812F4003F42
:100CB000C8D1012057E0374A126812F0007FC1D135
:100CC000012050E0324B1B6803F00F03AB4207D901
:100CD000EAB22F4B1A701B6803F00F03AB4255D1D9
:100CE000236813F0040F14D0E3685BB1B3F5805FA1
:100CF00008D0B3F5A05F05D0B3F5C05F02D0B3F55F
:100D0000E05F31D1234A936823F4E053E1680B4359
:100D10009360236813F0080F15D023695BB1B3F516
:100D2000805F08D0B3F5A05F05D0B3F5C05F02D0F7
:100D3000B3F5E05F1ED1174A936823F4604321693D
:100D400043EAC1039360FFF7B7FE124B9B68C3F3FE
:100D50000313124AD35CD840114B1860114B18682A
:100D6000FFF756FB002070BD40F2BA210A4800F0A0
:100D700041FBC7E740F2C121074800F03BFBDAE73F
:100D8000012070470120EEE70120ECE70120EAE7AF
:100D9000003C0240003802409442000864440008CD
:100DA0000C00002008000020014B1868704700BFAD
:100DB0000C00002000B583B08C461946134652B192
:100DC000074A53B10193009263460246054800F07A
:100DD00031F900F00BF8044AF3E7034BF2E700BFE8
:100DE000C4420008D4420008A044000808B50348E3
:100DF00000F03AF9012000F025F800BF0443000894
:100E000008B503460C4A12685AB10B4A10680333FE
:100E100023F003030344094A934206D8064A1360A9
:100E200008BD054A06491160EFE702F0C3FC0C2338
:100E300003604FF0FF30F3E78400002000FC012046
:100E4000F02F012000B530B9044D18242046294662
:100E5000ABBE0446FEE7024DF7E700BF26000200E6
:100E6000230002002DE9F04184B0234F01970326AF
:100E7000039600230293012401AD20462946ABBE10
:100E800080461E4BC3F8008001970396042302930B
:100E900020462946ABBE8046194BC3F80080019717
:100EA00003960823029320462946ABBE0446154B01
:100EB0001C60B4F1FF3F01D000230AE0104B1A6818
:100EC000104B1A60F8E7104A4FF0FF3142F8331028
:100ED0000133132BF7DD0C4B084A12681A6000220D
:100EE0005A60074909689960DA600649096819611A
:100EF0005A6104B0BDE8F0811843000808010020E1
:100F00000C01002004010020100100202DE9F04315
:100F100083B0814688462A4B00934F2301931527BF
:100F20006C4638462146ABBE0746AFBB244B002279
:100F300083F84F20009A3E463C463D4607E001328A
:100F40001E46204B43F8252001350124013292F939
:100F50000030FBB164B91C4959560029F6DB092B56
:100F6000F4D0082D16DC222BE9D0272BE9D1E6E7B7
:100F700036B19E42EAD1002313703E463C46E5E777
:100F800011495956002901DB092BDFD100231370C9
:100F90003446DBE73DB900E00025094B00221A701A
:100FA000084A13600135074B002243F82520C9F891
:100FB0000050C8F80030FFF755FF03B0BDE8F083DC
:100FC00088000020D80000202D4700082DE9F043BC
:100FD00085B004460F46435633BB042528462146B8
:100FE000ABBE0446384605B0BDE8F08314F901CB2A
:100FF00004AA1A4402F810CC0133AB42F6D304AA77
:101000001344002203F8102C4FF00408E946404630
:101010004946ABBE8046761B002EE3D03546102EE7
:1010200028BF10250023E8E70E46F5E708B5FFF7CF
:10103000CDFF08BD0FB400B583B004AB53F8042B4B
:1010400001938021074802F069FD002804DC03B009
:101050005DF804EB04B0704701460248FFF7E6FF75
:10106000F5E700BFB001002010B5044602F022FDF4
:1010700001462046FFF7DAFF01210248FFF7D6FFBD
:1010800010BD00BFB4430008F8B504460D4617462E
:101090001E462748FFF7CEFF21682648FFF7CAFF04
:1010A00061682548FFF7C6FFA1682448FFF7C2FF23
:1010B000E1682348FFF7BEFF21692248FFF7BAFF26
:1010C00061692148FFF7B6FFA1692048FFF7B2FF29
:1010D000E1691F48FFF7AEFF1E48FFF7ABFF294647
:1010E0001D48FFF7A7FF1D4CE16A1D48FFF7A2FF4F
:1010F000216B1C48FFF79EFFE16B1B48FFF79AFF2F
:1011000015F0800F0AD115F4004F0CD11748FFF7E6
:1011100091FF06991648FFF78DFFF8BD394615482F
:10112000FFF788FFEFE731461348FFF783FFEDE74E
:101130001C4300082C4300083C4300084C430008B3
:101140005C4300086C4300087C4300088C430008A3
:101150009C430008AC430008B843000800ED00E0E1
:10116000C8430008D8430008E843000818440008B2
:1011700020440008F84300080844000838B5836993
:101180001B888B4201D0002038BD044603684568A7
:10119000013B302B69D8DFE803F046211C1C5E3090
:1011A000332D1919681919191919361924681927AD
:1011B00068396868686868686868686868686868DE
:1011C0006868686868686868681919004FF0FF33D4
:1011D0000360A3690233A3610120D5E70023036004
:1011E000F7E700230360F4E700232B606B60AB603C
:1011F000EB60EEE700230360EBE7AB680360E8E732
:1012000000230360E5E700230360E2E7BFF34F8FAD
:101210001749CA6802F4E062164B1343CB60BFF370
:101220004F8F00BFFDE71449286802F039FC40B930
:101230006B6813B901232360CBE7042B05D0082B7F
:1012400006D04FF0FF332360C3E702232360C0E7DB
:1012500003232360BDE72B68023B012B02D9AB6857
:101260000360B6E700230360B3E700208CE700BF0C
:1012700000ED00E00400FA051843000808B500F08E
:1012800009F8024A024B9A6008BD00BF000000083E
:1012900000ED00E0024B4FF000629A60704700BF23
:1012A00000ED00E0224B9B6803F00C03042B14D0EC
:1012B000082B16D01BB11F4B1F4A1A6002E01D4BB2
:1012C0001D4A1A601A4B9B68C3F303131B4AD15C77
:1012D000184A1368CB4013607047164B184A1A60BF
:1012E000F0E7134B59685A6802F03F0211F4800F7F
:1012F00013D0134BB3FBF2F30D4A5268C2F38812BA
:1013000002FB03F30A4A5268C2F30142013252005F
:10131000B3FBF2F3074A1360D4E7074BB3FBF2F3D6
:10132000034A5268C2F3881202FB03F3EAE700BFE4
:10133000003802400C0000200024F400644400083F
:1013400000127A0030B595B000240194224B1A6C3B
:1013500042F080521A641B6C03F080530193019B8E
:1013600002941E4B1A6842F480421A601B6803F410
:1013700080430293029B012308934FF48033099327
:101380004FF480030F93082310934FF4A873119325
:1013900002251295072313930E9508A8FFF714F959
:1013A0000F230393049505944FF4A05306934FF431
:1013B00080530793052103A8FFF7E8FBFFF7F4FC30
:1013C000074BA3FB00308009FFF7CCF80420FFF7A0
:1013D000DDF815B030BD00BF00380240007000409D
:1013E000D34D621008B5FFF739F8FFF7ABFFFFF7F1
:1013F00059FF08BD08B50A4601460248FFF71AFE24
:10140000FEE700BF7444000800B5A1B000231E939E
:1014100009E04B7849680091114903A802F020FBCC
:1014200003A8FFF721FE00234FF0FF321CA90D484F
:10143000006800F0E4FF0128F5D11C990A78032A1E
:10144000E7D14B7849680091074903A802F008FBEF
:1014500003A8FFF709FE1C9802F0BCF9E3E700BF00
:10146000A444000830020020AC44000800B5A1B03C
:1014700000231E9309E04B7849680091114903A8A5
:1014800002F0EEFA03A8FFF7EFFD00234FF0FF3262
:101490001CA90D48006800F0B2FF0128F5D11C9985
:1014A0000A78042AE7D14B7849680091074903A8D4
:1014B00002F0D6FA03A8FFF7D7FD1C9802F08AF9CC
:1014C000E3E700BFEC44000834020020F4440008C5
:1014D00008B502F043FA002800F00100B8BF40420E
:1014E000033008BDF0B583B000250DE02248FFF7BA
:1014F000BBFDC82001F074FB06E0019B1A78596817
:101500001E48FFF797FD35464FF47B7002F05AF9FD
:1015100001900028EAD0C82001F062FBFFF7D8FF55
:10152000019B1870019B01225A70AE18B6B2019C43
:1015300065604FF47A7323810A344FF478773A4622
:101540000021204602F05CF92B460D4A3946204620
:1015500002F052FA00234FF0FF3201A90948006857
:1015600000F023FE0128C8D00748FFF77DFD019851
:1015700002F030F9C7E700BF3445000864450008B1
:101580004C450008380200208445000870B582B040
:1015900000250DE02248FFF767FDC82001F020FB81
:1015A00006E0019B1A7859681E48FFF743FD35464F
:1015B0004FF47B7002F006F901900028EAD0C820B1
:1015C00001F00EFBFFF784FF019B1870019B0222C4
:1015D0005A706E1CB6B2019C65604FF47A73238119
:1015E0000A344FF478720F21204602F009F92B4695
:1015F0000D4A4FF47871204602F0FEF900234FF0B7
:10160000FF3201A90948006800F0CFFD0128C8D0C9
:101610000748FFF729FD019802F0DCF8C7E700BF93
:101620009C450008B44500084C4500083C020020D9
:10163000D445000810B582B0019043780BB902B0D0
:1016400010BD047802F08AF9204A82FB0032C317E9
:10165000C3EB6213642202FB13039BB904239C4275
:1016600012D000234FF0FF3201A91948006800F0A2
:101670009CFD012821D01748FFF7F6FC019802F0E5
:10168000A9F8DCE70323EAE700234FF0FF3201A9C2
:101690001148006800F089FD012806D00D48FFF7C9
:1016A000E3FC019802F096F8C9E701990B784A78B3
:1016B00049680A48FFF7BEFCC1E701990B784A78F0
:1016C00049680648FFF7B6FCB9E700BF1F85EB5134
:1016D00034020020EC4500083002002010460008CB
:1016E00010B582B0019043780BB902B010BD0478F8
:1016F00002F034F9204A82FB0032C317C3EB6213B5
:10170000642202FB13039BB904239C4212D00023E2
:101710004FF0FF3201A91948006800F046FD01288A
:1017200021D01748FFF7A0FC019802F053F8DCE73E
:101730000323EAE700234FF0FF3201A911480068B4
:1017400000F033FD012806D00D48FFF78DFC01980D
:1017500002F040F8C9E701990B784A7849680A48CD
:10176000FFF768FCC1E701990B784A784968064899
:10177000FFF760FCB9E700BF1F85EB513402002082
:10178000EC450008300200201046000800B583B088
:1017900031E002F0E3F8274A82FB0032C317C3EBC3
:1017A0006213642202FB1303002B2EDC019B63B344
:1017B0005A7859682048FFF73DFC019802F00AF872
:1017C00023E002F0CBF81B4A82FB0032C317C3EBC5
:1017D0006213642202FB1303002B20DC009BF3B195
:1017E0005A7859681448FFF725FC009801F0F2FF79
:1017F00015E0FFF775FF00234FF0FF3201A90F48F6
:10180000006800F0FCFD0128C3D000234FF0FF3238
:1018100069460B48006800F0F2FD0128D1D0C820CD
:1018200001F0DEF9019808B1FFF704FF00980028E5
:10183000DFD1E0E71F85EB51404600083802002069
:101840003C02002000B583B0002204210A2000F0F1
:1018500088FC344C2060002204210A2000F081FC26
:10186000314B1860002204210A2000F07AFC2F4B33
:101870001860002204210A2000F073FC2C4B186031
:101880002368002B3ED0284B1B68002B3ED0274BF3
:101890001B68002B3ED0264B1B68002B3ED000243B
:1018A00001940125009523464FF480622149224886
:1018B00001F004F80194009523464FF480621F491B
:1018C0001F4800F0FBFF01940223009323464FF4CE
:1018D00080621C491C4800F0F1FF019400952346EA
:1018E0004FF4806219491A4800F0E8FF019400950E
:1018F00023464FF480621749174800F0DFFF01F0DC
:101900000FF8FEE71548FFF7AFFBBCE71448FFF7F9
:10191000ABFBBCE71348FFF7A7FBBCE71248FFF798
:10192000A3FBBCE7380200203C020020300200206C
:1019300034020020E4460008E5140008EC460008E4
:101940008D150008F44600088D170008FC460008B5
:1019500009140008084700086D14000864460008D0
:1019600084460008A4460008C4460008FEE7FEE7D7
:1019700000B583B000F026F90190019B03B05DF83B
:1019800004FB704770470000124A12F0070F1ED088
:10199000D11D21F00701C1F5963313440A460E48C4
:1019A0000260002141601344083B23F007030B4809
:1019B000036059601960991A51601360084B1960EF
:1019C000084B1960084B4FF000421A6070474FF403
:1019D0009633E4E744020020502E0120400200200C
:1019E0004C2E0120482E0120442E0120164B1A4671
:1019F0001B688342FBD3516802EB010C844509D07C
:101A0000416800EB010C634509D00360904219D096
:101A1000106070474068014451601046F0E710B410
:101A20000A4C2468A3420BD05B68194441601368D8
:101A30001B680360904200D010605DF8044B704753
:101A40000460F7E7704700BF502E012040020020DD
:101A500070B5054600F0A6FF394B1B689BB1394BAA
:101A60001B681D4212D135B1083515F0070F02D0A1
:101A700025F007050835D5B1334B1B68AB421AD3A7
:101A8000324A14681DE0FFF77FFFE8E701F02CF809
:101A90000026FFF76BFF16F0070F4FD04FF05003F3
:101AA00083F31188BFF36F8FBFF34F8FFEE701F011
:101AB0001BF80026EDE701F017F80026E9E72246BB
:101AC0001C466368AB4202D22368002BF7D11C4B43
:101AD0001B68A34214D01668083623681360636835
:101AE0005B1B102B14D9601910F0070F0CD04FF0AE
:101AF000500383F31188BFF36F8FBFF34F8FFEE75F
:101B000000F0F2FF0026C4E743606560FFF76EFF58
:101B100062680D490B689B1A0B600D4909688B427E
:101B200001D20B490B60074B1B6813436360002312
:101B3000236000F0D9FF002EADD1AAE7304670BD7A
:101B400040020020442E0120482E0120502E01206A
:101B50004C2E012080B338B50446A0F1080550F89A
:101B6000043C164A1268134208D14FF0500383F325
:101B70001188BFF36F8FBFF34F8FFEE750F8081C3B
:101B800041B14FF0500383F31188BFF36F8FBFF360
:101B90004F8FFEE723EA020340F8043C00F002FF07
:101BA00054F8041C064A13680B4413602846FFF7D8
:101BB0001DFF00F099FF38BD704700BF442E012083
:101BC000482E0120014B1868704700BF482E0120A5
:101BD0000B4B1B68B3F1FF3F08D04FF0500383F36A
:101BE0001188BFF36F8FBFF34F8FFEE74FF05003A5
:101BF00083F31188BFF36F8FBFF34F8FFEE700BFF2
:101C00001000002006480068006880F3088862B66B
:101C100061B6BFF34F8FBFF36F8F00DF00BF0000CF
:101C200008ED00E04FF0807340F8043C21F0010122
:101C300040F8081C054B40F80C3C40F8202C6FF095
:101C4000020340F8243C4438704700BFD11B000811
:101C5000074B19680868B0E8F04F80F30988BFF3B4
:101C60006F8F4FF0000080F311887047AFF3008052
:101C7000A02E01204FF0500383F31188BFF36F8F24
:101C8000BFF34F8F0B4A136801331360012B00D051
:101C900070474FF0E023D3F8043D13F0FF0FF7D067
:101CA0004FF0500383F31188BFF36F8FBFF34F8F53
:101CB000FEE700BF10000020094B1B6843B94FF03E
:101CC000500383F31188BFF36F8FBFF34F8FFEE78D
:101CD000013B034A13600BB983F31188704700BFBF
:101CE00010000020000000000000000000000000C4
:101CF000EFF30980BFF36F8F154B1A681EF0100FBA
:101D000008BF20ED108A20E9F04F10604DF8043D27
:101D10004FF0500080F31188BFF34F8FBFF36F8FE8
:101D200000F0CAFF4FF0000080F3118808BC19686A
:101D30000868B0E8F04F1EF0100F08BFB0EC108A32
:101D400080F30988BFF36F8F704700BFAFF3008047
:101D5000A02E012008B54FF0500383F31188BFF384
:101D60006F8FBFF34F8F00F02BFE28B14FF0E023B1
:101D70004FF08052C3F8042D002383F3118808BD6F
:101D8000064B1B68064AA2FB03239B09013B4FF04D
:101D9000E022536107231361704700BF0C0000204D
:101DA000D34D62104FF0E023D3F8002D344B9A420C
:101DB0001CD04FF0E023D3F8002D324B9A421ED0B6
:101DC00010B582B0304B1A78D2B20192FF221A704D
:101DD0001B78DBB28DF803309DF8033003F050031D
:101DE0002A4A13702A4B07221A601BE04FF0500357
:101DF00083F31188BFF36F8FBFF34F8FFEE74FF070
:101E0000500383F31188BFF36F8FBFF34F8FFEE74B
:101E10001F4A1368013B13609DF803305B00DBB27F
:101E20008DF803309DF8033013F0800FF0D1184A7D
:101E300013681B02136003F4E0631360019BDBB2C1
:101E4000114A13704FF0E024D4F8203D43F470039E
:101E5000C4F8203DD4F8203D43F07043C4F8203D41
:101E6000FFF78EFF0B4B00221A60D4F8343F43F08B
:101E70004043C4F8343FFFF7C5FEFFF7A9FE00BF9B
:101E800071C20F4170C20F4100E400E0582E0120E2
:101E90005C2E012010000020EFF305830F2B0FD9DB
:101EA000114A9B5CDBB2114A12789A4208D94FF072
:101EB000500383F31188BFF36F8FBFF34F8FFEE79B
:101EC0004FF0E023D3F80C3D03F4E063084A1268B6
:101ED000934208D94FF0500383F31188BFF36F8FFB
:101EE000BFF34F8FFEE77047F0E300E0582E01206C
:101EF0005C2E012000F1080343604FF0FF32826046
:101F0000C3600361002303607047002303617047CF
:101F100043684B609A688A60516099600861036801
:101F200001330360704730B40D68B5F1FF3F11D045
:101F300000F108031C465B681A68AA42FAD9636874
:101F40004B6099608C6061600861036801330360D5
:101F500030BC70470469F2E70369416882688A60AF
:101F6000416851605A68824205D0002202611868B7
:101F700001381860704782685A60F6E710B5044669
:101F8000FFF778FEA26BE36B9A4204D00024FFF7C0
:101F900093FE204610BD0124F9E710B50446FFF773
:101FA00069FEA36B23B90124FFF786FE204610BD0E
:101FB0000024F9E770B504461546866B026C5AB9E1
:101FC00003681BB100200136A66370BD406801F0B4
:101FD0000FF800236360F6E76DB9806801F002FC3A
:101FE000226CA3681344A3606268934219D32368E8
:101FF000A3602846E7E7C06801F0F4FB226C514279
:10200000E3689B1AE3602268934202D263680B4440
:10201000E360022D01D00020D5E726B1013E00206B
:10202000D1E72846CFE70020CDE70346026C6AB12E
:1020300010B50846D9681144D9605C68A14201D343
:102040001968D960D96801F0CDFB10BD704738B56B
:102050000546FFF70FFE95F8454064B201E0013CEC
:1020600064B2002C0ADD6B6A43B105F1240000F074
:10207000BDFE0028F3D000F055FFF0E7FF2385F800
:102080004530FFF719FEFFF7F5FD95F8444064B2BF
:1020900001E0013C64B2002C0ADD2B6943B105F17B
:1020A000100000F0A3FE0028F3D000F03BFFF0E7A3
:1020B000FF2385F84430FFF7FFFD38BD38B5E0B1A8
:1020C0000D460446FFF7D6FD2368E26B216C01FB49
:1020D000023060600020A063A360013A02FB01337C
:1020E000E360FF2384F8443084F84530FDB9236968
:1020F00063B9FFF7E1FD012038BD4FF0500383F3D2
:102100001188BFF36F8FBFF34F8FFEE704F110000C
:1021100000F06CFE0028ECD04FF0E0234FF080522E
:10212000C3F8042DBFF34F8FBFF36F8FE1E704F1C6
:102130001000FFF7DFFE04F12400FFF7DBFED8E715
:1021400038B51D46049C0B4649B92460E0632364FE
:1021500001212046FFF7B2FF84F84C5038BD2260C1
:10216000F4E740B94FF0500383F31188BFF36F8F4A
:10217000BFF34F8FFEE7F0B583B00C461546064619
:1021800089B101FB00F05030FFF762FC074638B11F
:1021900000902B4600F1500221463046FFF7D0FF59
:1021A000384603B0F0BD0846EDE7F0B585B00192C2
:1021B00088B10F461D460446B1B1022D20D1E36B14
:1021C000012B1DD04FF0500383F31188BFF36F8FA5
:1021D000BFF34F8FFEE74FF0500383F31188BFF337
:1021E0006F8FBFF34F8FFEE7036C002BE5D04FF0EE
:1021F000500383F31188BFF36F8FBFF34F8FFEE758
:1022000000F096FE064658B9019B002B48D04FF0CF
:10221000500383F31188BFF36F8FBFF34F8FFEE737
:1022200000263DE02A4639462046FFF7C3FE636A92
:102230007BB948B14FF0E0234FF08052C3F8042D32
:10224000BFF34F8FBFF36F8FFFF736FD012005B04F
:10225000F0BD04F1240000F0C9FD0028F4D04FF0D7
:10226000E0234FF08052C3F8042DBFF34F8FBFF32C
:102270006F8FE9E7FFF720FD0020E8E702A800F0F4
:10228000FBFD012619E0002384F8443021E00023FF
:1022900084F8453023E02046FFF7D9FE00F024FC07
:1022A000FFF7E8FCA26BE36B9A42BBD3022DB9D0D7
:1022B000019B002BDED0002EE0D0FFF7FDFC00F0EC
:1022C00071FBFFF7D7FC94F8442052B2B2F1FF3F04
:1022D000D9D094F8452052B2B2F1FF3FD7D0FFF7E2
:1022E000EBFC01A902A800F0DDFDD8B92046FFF7FC
:1022F00045FE0028CFD0019904F1100000F042FD06
:102300002046FFF7A4FE00F0EFFB0028C8D14FF0F5
:10231000E0234FF08052C3F8042DBFF34F8FBFF37B
:102320006F8FBDE72046FFF792FE00F0DDFB002037
:102330008DE72DE9F84390B10F4616461C46054639
:10234000B1B1022C20D1EB6B012B1DD04FF050030B
:1023500083F31188BFF36F8FBFF34F8FFEE74FF00A
:10236000500383F31188BFF36F8FBFF34F8FFEE7E6
:10237000036C002BE5D04FF0500383F31188BFF3BB
:102380006F8FBFF34F8FFEE7FFF786FDEFF31189E5
:102390004FF0500383F31188BFF36F8FBFF34F8F5C
:1023A000AA6BEB6B9A4206D3022C04D0002089F36F
:1023B0001188BDE8F88395F845804FFA88F82246E1
:1023C00039462846FFF7F6FDB8F1FF3F06D008F181
:1023D00001035BB285F845300120E8E76B6A0BB971
:1023E0000120E4E705F1240000F000FD18B126B15A
:1023F00001203060DBE70120D9E70120D7E72DE994
:10240000F04184B00192A0B10E4698460446C9B18D
:1024100000F08EFD054608BB019B002B00F0878075
:102420004FF0500383F31188BFF36F8FBFF34F8FCB
:10243000FEE74FF0500383F31188BFF36F8FBFF3B4
:102440004F8FFEE7036C002BE2D04FF0500383F375
:102450001188BFF36F8FBFF34F8FFEE7002566E053
:10246000E56831462046FFF7E0FDB8F1000F20D1C6
:102470007B1EA36323683BB123694BB9FFF71CFCA8
:10248000012004B0BDE8F08100F00CFE6060F3E7CD
:1024900004F1100000F0AAFC0028EFD04FF0E02378
:1024A0004FF08052C3F8042DBFF34F8FBFF36F8FEF
:1024B000E4E7E560636A002BE0D004F1240000F05B
:1024C00095FC0028DAD04FF0E0234FF08052C3F89B
:1024D000042DBFF34F8FBFF36F8FCFE7FFF7ECFBF8
:1024E0000020CEE702A800F0C7FC012529E0002368
:1024F00084F8443031E0002384F8453033E0FFF7BE
:10250000B9FB606800F024FDFFF7D6FB3BE02046F6
:10251000FFF79DFD00F0E8FA09E02046FFF797FD80
:1025200000F0E2FA2046FFF738FD002842D1FFF71D
:10253000A1FBA76B002F93D1019B002BCED0002DC8
:10254000D0D0FFF7B9FB00F02DFAFFF793FB94F81A
:10255000442052B2B2F1FF3FC9D094F8452052B2A4
:10256000B2F1FF3FC7D0FFF7A7FB01A902A800F017
:1025700099FC0028D1D12046FFF70FFD0028C6D0D6
:102580002368002BBBD0019904F1240000F0FAFB72
:102590002046FFF75CFD00F0A7FA0028C7D14FF0F6
:1025A000E0234FF08052C3F8042DBFF34F8FBFF3E9
:1025B0006F8FBCE7002064E70023072B0CD8074A85
:1025C00052F833200AB10133F7E7044A42F83310D6
:1025D00002EBC30358607047704700BF602E0120B4
:1025E00070B504460D461646FFF744FB94F8443098
:1025F0005BB2B3F1FF3F0DD094F845305BB2B3F15D
:10260000FF3F0BD0FFF758FBA36B5BB12046FFF7F2
:102610001EFD70BD002384F84430EDE7002384F8EC
:102620004530EFE73246294604F1240000F0C2FBB2
:10263000ECE70000084B1B681B6823B9074B4FF001
:10264000FF321A607047044B1B68DB68DB685A680E
:10265000024B1A60704700BFA42E0120542F0120A6
:1026600010B50446006BFFF775FA2046FFF772FAC3
:1026700010BD2DE9F04780460D4617469946089E45
:10268000DDF824A00A9C9200A521206B01F0B8F887
:10269000236B07F18042013A03EB820727F007071B
:1026A0004FF0000CBCF1090F0BD815F90C2004EB0E
:1026B0000C0383F8342015F90C3013B10CF1010C24
:1026C000F0E7002384F83D30042E00D90426E662AA
:1026D000A6640025E564201DFFF717FC04F118002F
:1026E000FFF713FC2461C6F10506A6616462256547
:1026F00084F854504A4641463846FFF793FA206022
:10270000BAF1000F01D0CAF80040BDE8F087000020
:1027100038B5002407E004EB840293000E48184407
:10272000FFF7E8FB0134042CF5D90C4D2846FFF7E0
:10273000E1FB0B4C2046FFF7DDFB0A48FFF7DAFB15
:102740000948FFF7D7FB0948FFF7D4FB084B1D608A
:10275000084B1C6038BD00BFAC2E0120282F012083
:102760003C2F01205C2F0120882F0120742F012095
:10277000A42E0120A82E012010B50446FFF77AFAF6
:10278000224A136801331360214B1B685BB1214B54
:102790001B686BB91E4B1B68DA6AE36A9A4207D85A
:1027A0001B4B1C6004E01A4B1C601368012B29D0E2
:1027B000194A1368013313602364E06A01238340DC
:1027C000164A11680B43136000EB8000211D144B67
:1027D00003EB8000FFF79CFBFFF76EFA0D4B1B68C5
:1027E0007BB10B4B1B68DA6AE36A9A4209D24FF05D
:1027F000E0234FF08052C3F8042DBFF34F8FBFF397
:102800006F8F10BDFFF784FFD2E700BF102F0120AC
:10281000A02E0120702F0120202F0120242F012025
:10282000AC2E012070B504460D461D4B1E681D4B95
:1028300018680430FFF790FB50B91A4B1B68DA6A2E
:10284000012303FA02F218490B6823EA02030B6022
:10285000B4F1FF3F0DD03444124B1B685C60A642BC
:1028600010D9124B18680F4B19680431FFF75BFB46
:1028700070BD002DEFD00B4B196804310C48FFF7E9
:1028800047FBF5E70B4B1868064B19680431FFF757
:102890004AFB094B1B68A342EAD9074B1C60E7E7D8
:1028A0009C2F0120A02E0120242F0120A82E0120E2
:1028B000742F0120A42E0120542F01202DE9F04374
:1028C00085B00746884614461E469000FFF7C0F8BC
:1028D000F0B181465820FFF7BBF80546A0B1C0F81B
:1028E0003090D5B10023039302950D9B01930C9B6F
:1028F00000933346224641463846FFF7BAFE284643
:10290000FFF73AFF012005E04846FFF723F9E8E723
:102910004FF0FF3005B0BDE8F0834FF0FF30F9E72E
:1029200000B583B0194B019300230093822218490C
:102930001848FFF7C3FF012807D0012808D0B0F1DD
:10294000FF3F1AD003B05DF804FB00F01BFCF4E776
:102950004FF0500383F31188BFF36F8FBFF34F8F96
:102960000D4B4FF0FF321A600C4B01221A600C4BDA
:1029700000221A60FFF716FAE4E74FF0500383F3E2
:102980001188BFF36F8FBFF34F8FFEE7502F0120E9
:1029900014470008892C0008542F0120702F0120B3
:1029A0009C2F0120024A136801331360704700BF57
:1029B0001C2F0120014B1868704700BF9C2F01207D
:1029C000F8B53E4B1B68002B6AD13D4B1D680135A5
:1029D0001D60C5B93B4B1B681B6843B14FF05003EA
:1029E00083F31188BFF36F8FBFF34F8FFEE7354A34
:1029F0001168354B186810601960344A1368013348
:102A00001360FFF717FE324B1B68AB423ED900271D
:102A1000304B1B68DB6A03EB83039A002E4B9B58F9
:102A2000012B00D901272D4B1B68002B3FD1FEF74E
:102A3000A8FF3CE00127234B1B681B6843B3214BD5
:102A40001B68DB68DC6863689D4226D3261D304620
:102A5000FFF782FAA36A1BB104F11800FFF77CFAB2
:102A6000E36A01229A401E49086802430A6003EBA8
:102A700083039A00314618481044FFF749FAE26A86
:102A8000144B1B68DB6A9A42D4D2D4E70027D2E702
:102A90000F4B4FF0FF321A60BAE70D4A1360B7E7E9
:102AA0000E4A136801331360FEF76BFF00270D4BCE
:102AB0001B6803B101273846F8BD00BF1C2F012059
:102AC0009C2F0120A42E0120A82E0120582F012088
:102AD000542F0120A02E0120AC2E0120182F012000
:102AE000242F0120A02F012038B5354B1B6843B996
:102AF0004FF0500383F31188BFF36F8FBFF34F8FF5
:102B0000FEE7FFF7B7F82E4B1A68013A1A601B6808
:102B1000002B4FD12B4B1B680BB900244BE000243A
:102B2000294B1B681BB3284BDB68DC6804F11800D9
:102B3000FFF712FA251D2846FFF70EFAE06A012377
:102B40008340224A11680B43136000EB8000294642
:102B50001F4B03EB8000FFF7DBF9E26A1D4B1B689C
:102B6000DB6A9A42DCD31C4B01221A60D8E70CB115
:102B7000FFF760FD194B1C6884B9174B1C68D4B172
:102B80004FF0E0234FF08052C3F8042DBFF34F8F76
:102B9000BFF36F8F01240EE0013C07D0FFF710FF59
:102BA0000028F9D00C4B01221A60F5E70B4B0022EC
:102BB0001A60E2E70024FFF77FF8204638BD00BF27
:102BC0001C2F0120102F01205C2F0120242F012019
:102BD000AC2E0120A02E0120A02F0120182F0120B3
:102BE00010B5A8B10446104B1B6843B14FF0500319
:102BF00083F31188BFF36F8FBFF34F8FFEE7FFF7AB
:102C0000D1FE00212046FFF70DFEFFF76DFF48B90A
:102C10004FF0E0234FF08052C3F8042DBFF34F8FE5
:102C2000BFF36F8F10BD00BF1C2F0120134B1B681B
:102C300013B310B5FFF7B6FE114B1C68FFF754FF36
:102C400024B90E4B1B68002BF4D110BDFFF712F80E
:102C50000B4BDB68DC68201DFFF77EF9094A13681F
:102C6000013B1360054A1368013B1360FFF724F82A
:102C70002046FFF7F5FCE4E7704700BF142F012062
:102C8000882F0120102F012008B50BE04FF0E02322
:102C90004FF08052C3F8042DBFF34F8FBFF36F8FF7
:102CA000FEF766FEFFF7C2FF024B1B68012BEDD853
:102CB000F6E700BFAC2E012008B52D4B1B681BB1F9
:102CC0002C4B01221A6008BD2A4B00221A602A4BA5
:102CD0001B681B6B1A68B2F1A53F03D15A68B2F1A9
:102CE000A53F1BD0244B186819683431FEF73FFE0E
:102CF000224B1B68B3FA83F3DBB2C3F11F0303EB70
:102D000083018A001E498A588AB94FF0500383F321
:102D10001188BFF36F8FBFF34F8FFEE79A68B2F150
:102D2000A53FDFD1DB68B3F1A53FDBD1E0E7144974
:102D300003EB830082000A4450684068506003EB54
:102D4000830C4FEA8C0208321144884209D003EB0D
:102D500083039A000A4B13445B68DA68064B1A60D7
:102D6000B1E7406862469100054A0A445060EEE7C8
:102D70001C2F0120A02F0120A02E0120242F012094
:102D8000AC2E012058B110B50C46094A1168183113
:102D9000FFF7C9F801212046FFF744FD10BD4FF0B1
:102DA000500383F31188BFF36F8FBFF34F8FFEE79C
:102DB000A02E012038B570B10D4614460A4A11689C
:102DC0001831FFF7A5F80CB14FF0FF352146284622
:102DD000FFF728FD38BD4FF0500383F31188BFF390
:102DE0006F8FBFF34F8FFEE7A02E012038B5C36869
:102DF000DC6824B304F118052846FFF7ADF8184B3A
:102E00001B682BBB251D2846FFF7A6F8E06A0123A7
:102E10008340144A11680B43136000EB800029467D
:102E2000114B03EB8000FFF773F8E26A0F4B1B684E
:102E3000DB6A9A4211D901200D4B186038BD4FF062
:102E4000500383F31188BFF36F8FBFF34F8FFEE7FB
:102E500029460848FFF75CF8E7E70020EEE700BFE7
:102E60001C2F0120242F0120AC2E0120A02E012098
:102E7000A02F01205C2F012030B1084A12680260A7
:102E8000074A1268426070474FF0500383F311887D
:102E9000BFF36F8FBFF34F8FFEE700BF582F0120A6
:102EA0009C2F012038B5C0B10C460546F1B1FEF7A4
:102EB000E1FE1A4B1A682368B3F1FF3F27D0286858
:102EC00017490968884202D06968914224D9696823
:102ED000501A834213D801241AE04FF0500383F3B1
:102EE0001188BFF36F8FBFF34F8FFEE74FF0500392
:102EF00083F31188BFF36F8FBFF34F8FFEE78A1AFA
:102F0000134423602846FFF7B7FF002400E00024A5
:102F1000FEF7D2FE204638BD0124F9E79C2F0120A0
:102F2000582F0120014B01221A607047A02F012069
:102F3000054B1B6833B1054B1B680BB10020704774
:102F40000220704701207047702F01201C2F0120A4
:102F5000002845D038B50446C36A224A1268D26AAE
:102F6000934214D28269002A05DB1E4A1268D26A93
:102F7000C2F105028261616903EB83031A4A02EB25
:102F80008303994204D0174B1B68DB6AE36238BDA8
:102F9000251D2846FEF7E0FF90B1124B1B68D86A4A
:102FA000E06201238340114A11680B43136000EB78
:102FB000800029460C4B03EB8000FEF7A9FFE6E7F3
:102FC000E36A03EB8301084A52F82120002AE4D186
:102FD00001229A4005490B6823EA02030B60DCE7F3
:102FE000704700BFA02E0120AC2E0120242F01200D
:102FF00000284CD038B50446274B1B68834208D0C4
:103000004FF0500383F31188BFF36F8FBFF34F8FDF
:10301000FEE7C36C43B94FF0500383F31188BFF34D
:103020006F8FBFF34F8FFEE7013BC364C16A826CB1
:1030300091422ED00BB1002038BD051D2846FEF769
:103040008BFF70B9E26A02EB8201144B53F8213016
:103050003BB9012303FA02F211490B6823EA020388
:103060000B60A06CE062C0F10503A361012404FAC7
:1030700000F30B4A11680B43136000EB80002946F4
:10308000064B03EB8000FEF743FF2046D4E7002009
:1030900070470020D0E700BFA02E0120AC2E0120F9
:1030A000242F0120054B1B6823B1044B1A68D36CF5
:1030B0000133D364014B1868704700BFA02E012074
:1030C000064B1A681368B3FA83F35B09036013B9FC
:1030D000D368186870470020704700BFA42F0120F4
:1030E00008B54160006191420CD8D21A83699A42B6
:1030F00001D3012008BD011D094B1868FEF713FF1D
:103100000020F7E79A4201D2994206D2011D054BF1
:103110001868FEF708FF0020ECE70120EAE700BF8F
:10312000A82F0120A42F012038B5FEF7A3FD0F4BD7
:103130001B6813B1FEF7C0FD38BD0D4D2846FEF7E4
:10314000D9FE0C4C2046FEF7D5FE0B4B1D600B4BF9
:103150001C6000220C210A20FFF703F8034B1860C3
:103160000028E7D00649FFF727FAE3E7D82F012028
:10317000AC2F0120C02F0120A42F0120A82F012057
:103180001C47000800B583B0FFF7CEFF0D4B1B684E
:103190005BB10D4B01930223009300234FF4827225
:1031A0000A490B48FFF78AFB40B94FF0500383F3FD
:1031B0001188BFF36F8FBFF34F8FFEE703B05DF849
:1031C00004FB00BFD82F0120DC2F0120244700087A
:1031D00099340008B8B19C4603461848006858B3B3
:1031E00000B585B001910292039305291CDCFFF71D
:1031F0009FFE022810D000231A4601A90F4800683C
:10320000FEF7D3FF15E04FF0500383F31188BFF3AF
:103210006F8FBFF34F8FFEE70023069A01A907487F
:103220000068FEF7C2FF04E00023624601A9FFF731
:1032300080F805B05DF804FB00207047D82F01200E
:1032400070B582B01A4B1B681A6852B3DB681E68EF
:10325000DC68251D2846FEF77FFE636A20469847F6
:10326000E369012BEED1A36933449E4207D2636028
:10327000246129460E4B1868FEF755FEE2E700214F
:1032800000910B4632462046FFF7A4FF0028D9D113
:103290004FF0500383F31188BFF36F8FBFF34F8F4D
:1032A000FEE7044A106802490860136002B070BD6E
:1032B000A42F0120A82F012038B50546FFF77AFB7F
:1032C0000446074B1B68834205D800232B60044B40
:1032D0001C60204638BDFFF7B3FF01232B60F6E7E3
:1032E000D42F012070B582B006460D4614490968F6
:1032F000C968CC68201DFEF72FFEE169012904D0C2
:10330000636A2046984702B070BDA16933462A46D9
:1033100031442046FFF7E4FE0028F1D0002100915F
:103320000B4632462046FFF755FF0028E8D14FF004
:10333000500383F31188BFF36F8FBFF34F8FFEE706
:10334000A42F012070B582B006460C46FFF72AFB79
:1033500001A8FFF7B1FF019B2BBB05460CB9B0429A
:103360001AD22CB1124B1B681C68B4FA84F464099D
:103370002246711B0F4B1868FFF732F9FFF7B4FBB9
:1033800098B94FF0E0234FF08052C3F8042DBFF3FB
:103390004F8FBFF36F8F08E0FFF7A6FB294630463B
:1033A000FFF7A0FF01E0FFF79FFB02B070BD00BF79
:1033B000A82F0120D82F012010B586B000231A466F
:1033C00003A934480068FFF71AF8002860D0039B6F
:1033D000002BF3DB059C636913B1201DFEF7BCFDD8
:1033E00002A8FFF769FF039B092BE7D801A252F857
:1033F00023F000BF1D3400081D3400081D340008F0
:10340000BD33000863340008893400081D34000807
:103410001D340008BD33000863340008049BA16913
:10342000024619442046FFF75BFE0028C6D0636AB7
:1034300020469847E369012BC0D1A2690021009181
:103440000B46049802442046FFF7C4FE0028B5D17D
:103450004FF0500383F31188BFF36F8FBFF34F8F8B
:10346000FEE70499A16131B10346024601442046BA
:10347000FFF736FEA2E74FF0500383F31188BFF346
:103480006F8FBFF34F8FFEE72046FEF763FB95E794
:1034900006B010BDD82F012000B583B001A8FFF7FA
:1034A0000FFE0199FFF74EFFFFF786FFF6E70000DA
:1034B00053B94AB9002908BF00281CBF4FF0FF319B
:1034C0004FF0FF3000F074B9ADF1080C6DE904CE97
:1034D00000F006F8DDF804E0DDE9022304B07047EF
:1034E0002DE9F047089D04468E46002B4DD18A42B7
:1034F000944669D9B2FA82F252B101FA02F3C2F1EA
:10350000200120FA01F10CFA02FC41EA030E94407A
:103510004FEA1C48210CBEFBF8F61FFA8CF708FB9B
:1035200016E341EA034306FB07F199420AD91CEB73
:10353000030306F1FF3080F01F81994240F21C81A5
:10354000023E63445B1AA4B2B3FBF8F008FB1033ED
:1035500044EA034400FB07F7A7420AD91CEB040422
:1035600000F1FF3380F00A81A74240F207816444F2
:10357000023840EA0640E41B00261DB1D440002377
:10358000C5E900433146BDE8F0878B4209D9002DDB
:1035900000F0EF800026C5E9000130463146BDE865
:1035A000F087B3FA83F6002E4AD18B4202D38242CF
:1035B00000F2F980841A61EB030301209E46002D7E
:1035C000E0D0C5E9004EDDE702B9FFDEB2FA82F2D3
:1035D000002A40F09280A1EB0C014FEA1C471FFA31
:1035E0008CFE0126200CB1FBF7F307FB131140EA18
:1035F00001410EFB03F0884208D91CEB010103F1E5
:10360000FF3802D2884200F2CB804346091AA4B2A6
:10361000B1FBF7F007FB101144EA01440EFB00FE7A
:10362000A64508D91CEB040400F1FF3102D2A645DF
:1036300000F2BB800846A4EB0E0440EA03409CE77E
:10364000C6F12007B34022FA07FC4CEA030C20FA2B
:1036500007F401FA06F31C43F9404FEA1C4900FA4B
:1036600006F3B1FBF9F8200C1FFA8CFE09FB1811C8
:1036700040EA014108FB0EF0884202FA06F20BD93B
:103680001CEB010108F1FF3A80F08880884240F28B
:103690008580A8F102086144091AA4B2B1FBF9F0CF
:1036A00009FB101144EA014100FB0EFE8E4508D9CA
:1036B0001CEB010100F1FF346CD28E456AD902384F
:1036C000614440EA0840A0FB0294A1EB0E01A14234
:1036D000C846A64656D353D05DB1B3EB080261EBA2
:1036E0000E0101FA07F722FA06F3F1401F43C5E97C
:1036F000007100263146BDE8F087C2F12003D840B2
:103700000CFA02FC21FA03F3914001434FEA1C47F3
:103710001FFA8CFEB3FBF7F007FB10360B0C43EAE5
:10372000064300FB0EF69E4204FA02F408D91CEB95
:10373000030300F1FF382FD29E422DD90238634493
:103740009B1B89B2B3FBF7F607FB163341EA034133
:1037500006FB0EF38B4208D91CEB010106F1FF3882
:1037600016D28B4214D9023E6144C91A46EA004679
:1037700038E72E46284605E70646E3E61846F8E60B
:103780004B45A9D2B9EB020864EB0C0E0138A3E754
:103790004646EAE7204694E74046D1E7D0467BE735
:1037A000023B614432E7304609E76444023842E7AD
:1037B000704700BF014B1868704700BF140000201D
:1037C00070477047024B0146186800F06DB800BFA3
:1037D00014000020024B0146186800F019B800BF21
:1037E000140000200A44914200F1FF3300D17047D9
:1037F00010B511F8014B03F8014F9142F9D110BDFA
:1038000002440346934200D1704703F8011BF9E7D5
:1038100037B5002944D051F8043C0190002BA1F1A8
:103820000404B8BFE41800F087F91E4A0198136831
:1038300033B96360146003B0BDE8304000F082B972
:10384000A34208D9256861198B4201BF19685B68DA
:1038500049192160EDE71A465B680BB1A342FAD91A
:1038600011685518A5420BD1246821445418A3426D
:103870001160E0D11C685B68536021441160DAE795
:1038800002D90C230360D6E7256861198B4204BF77
:1038900019685B68636004BF491921605460CAE716
:1038A00003B030BDE42F0120F8B5CD1C25F0030591
:1038B00008350C2D38BF0C25002D064601DBA9422A
:1038C00003D90C2333600020F8BD00F035F92149FD
:1038D0000A6814469CB9204F3B6823B921463046FC
:1038E00000F07AF838602946304600F075F8431C3D
:1038F00023D10C233360304600F024F9E3E723683A
:103900005B1B17D40B2B03D923601C44256004E0F8
:103910006368A2420CBF0B605360304600F012F99E
:1039200004F10B00231D20F00700C21ACCD01B1A93
:10393000A350C9E722466468CCE7C41C24F0030402
:10394000A042E3D0211A304600F046F80130DDD124
:10395000CFE700BFE42F0120E82F0120164B10B560
:103960001C68A36BB3B91820FFF72CFFA06328B91C
:103970000246124B12484E21FDF71CFA114A124B17
:10398000C0E90023114B83600B23838101220023B4
:10399000C0E90423A46B0E4A206963690D494243C0
:1039A00001FB0322A0FB0101431C42EB0100C4E91F
:1039B000043020F0004010BD1400002090480008A2
:1039C000A74800080E33CDAB34126DE6ECDE0500DF
:1039D0002DF451582D7F954C38B5064D00230446E3
:1039E00008462B60FDF70CFA431C02D12B6803B18B
:1039F000236038BD000100200CB430B5174B0C1EFD
:103A00001D689DB008DA8B232B604FF0FF301DB08E
:103A1000BDE8304002B070474FF40273ADF8143087
:103A200014BF04F1FF332346049307934FF6FF734B
:103A300002900690ADF81630209A21AB02A92846D4
:103A4000019300F0E1F8431CBCBF8B232B60002CDA
:103A5000DDD0029B00221A70D9E700BF14000020BD
:103A60000EB400B59CB01DAB029006906FF0004103
:103A7000094807910491094953F8042B05910068FE
:103A8000019302A900F0C0F8029B00221A701CB03A
:103A90005DF804EB03B07047140000200802FFFF3C
:103AA00010F8012B11F8013B012A28BF9A42F7D0E8
:103AB000D01A7047034613F8012B002AFBD1181ABD
:103AC0000138704730B51446002C9BB005461A46A5
:103AD00005DA8B2303604FF0FF301BB030BD4FF48D
:103AE0000273ADF80C3014BF04F1FF332346029388
:103AF00005934FF6FF7300910491ADF80E306946BF
:103B00001E9B00F081F8431CBCBF8B232B60002C54
:103B1000E3D0009B00221A70DFE7000007B5009396
:103B200013460A46014603480068FFF7CBFF03B07F
:103B30005DF804FB140000200148FFF741BE00BF00
:103B4000E02F01200148FFF73CBE00BFE02F01201D
:103B50002DE9F0478E689E4282460C4690461F46ED
:103B600038D88A8912F4906F32D025680969A5EB9C
:103B70000109656905EB450505EBD57501334B4436
:103B80006D109D4238BF1D46530531D52946FFF7BC
:103B90008BFE064650B90C23CAF80030A38943F0C7
:103BA0004003A3814FF0FF30BDE8F08721694A460A
:103BB000FFF718FEA38923F4906343F08003A381E9
:103BC000266165614E44A5EB09052660A5603E4669
:103BD000BE4200D93E4620683246414600F0F8FA1F
:103BE000A3689B1BA3602368334423600020DBE7AA
:103BF0002A4600F007FB06460028E1D1216950461D
:103C0000FFF706FEC7E700002DE9F04F98468B89C5
:103C10001B069DB007460D4614460ED50B6963B9C9
:103C20004021FFF741FE2860286120B90C233B604A
:103C30004FF0FF30D1E040236B6100230993202334
:103C40008DF82930CDF80C803023DFF8A8818DF86D
:103C50002A304FF0010923469A4613F8012B0AB186
:103C6000252AF9D1BAEB040B0BD05B462246294634
:103C70003846FFF76DFF013000F0AA80099A5A44D8
:103C800009929AF80030002B00F0A28000234FF038
:103C9000FF32CDE905230AF1010A049307938DF859
:103CA00053301A935446052214F8011B514800F072
:103CB0003FFA049AD8B9D00644BF20238DF8533078
:103CC000110744BF2B238DF853309AF800302A2B6C
:103CD00015D0079A544600204FF00A0C214611F8DF
:103CE000013B303B092B4ED9B0B1079214E0A0EB59
:103CF000080309FA03F313430493A246D2E7039B94
:103D0000191D1B680391002BBBBF5B4242F00202EE
:103D100007930793B8BF049223782E2B0CD16378B6
:103D20002A2B35D1039B1A1D1B680392002BB8BFA9
:103D30004FF0FF3302340593DFF8C8A02178032247
:103D4000504600F0F5F940B14023A0EB0A0003FA19
:103D500000F0049B03430134049314F8011B26482C
:103D60008DF82810062200F0E3F9002838D0234B04
:103D70001BBB039B073323F0070308330393099B03
:103D80003344099367E70CFB02320C460120A5E798
:103D900000230134059319464FF00A0C204610F811
:103DA000012B303A092A03D9002BC5D00591C3E76E
:103DB0000CFB012104460123F0E703AB00932A46E4
:103DC0000F4B04A93846AFF30080421C0646D6D1FB
:103DD000AB895B063FF52CAF09981DB0BDE8F08FAD
:103DE00003AB00932A46064B04A9384600F07AF844
:103DF000EBE700BF014900080B4900080000000084
:103E0000513B0008074900082DE9F047164699463E
:103E10008A680B69DDF820809342B8BF134633608F
:103E200091F8432007460C460AB1013333602368FA
:103E3000990642BF336802333360256815F00605E2
:103E400006D104F1190AE36832689B1AAB4226DCFA
:103E500094F84320131E226818BF012392062BD426
:103E600004F1430249463846C04701301ED023685A
:103E7000E568326803F00603042B08BFAD1AA36897
:103E800022690CBF25EAE57500259342C4BF9B1A41
:103E9000ED1800261A34B5421AD1002008E001239B
:103EA000524649463846C047013003D14FF0FF30F3
:103EB000BDE8F0870135C6E7E1185A1C302081F8CB
:103EC0004300224494F8451082F843100233C7E7B8
:103ED0000123224649463846C0470130E6D0013624
:103EE000D9E700002DE9FF470F7E0C9D782F914602
:103EF00080460C469A4601F1430207D8622F0AD841
:103F0000002F00F0D880582F00F0A38004F1420564
:103F100084F842703AE0A7F16303152BF6D801A1AB
:103F200051F823F07D3F0008913F00080D3F000845
:103F30000D3F00080D3F00080D3F0008913F0008AD
:103F40000D3F00080D3F00080D3F00080D3F000821
:103F50009D400008C13F00087F4000080D3F000859
:103F60000D3F0008BF4000080D3F0008C13F00089A
:103F70000D3F00080D3F0008874000082B681A1D00
:103F80001B682A6004F1420584F842300123A3E053
:103F900020682968060601F104030AD50E682B6023
:103FA000002E03DA2D23764284F843305E480A233C
:103FB00019E00E682B6010F0400F18BF36B2EFE723
:103FC0002B682068191D2960010601D51E6802E0D2
:103FD0004606FBD51E8854486F2F0CBF08230A23C2
:103FE000002184F843106568A560002DA2BF2168F8
:103FF00021F0040121600EB9002D4DD01546B6FB0D
:10400000F3F103FB1167C75D05F8017D3746BB423D
:104010000E46F4D9082B0BD12368DE0708D5236997
:1040200061689942DEBF302305F8013C05F1FF3598
:10403000521B2261CDF800A04B4603AA2146404600
:10404000FFF7E2FE01304CD14FF0FF3004B0BDE885
:10405000F087354881F845702968236851F8046B6A
:1040600029601D0614D5DF0744BF43F020032360F9
:104070001EB9236823F0200323601023B0E72368D0
:1040800043F0200323607823284884F84530E3E791
:10409000590648BFB6B2E6E71546BBE72B68266867
:1040A0006169181D286035061B6801D5196002E09A
:1040B0007006FBD51980002323611546BAE72B68EB
:1040C0001A1D2A601D6862680021284600F030F839
:1040D00008B1401B606063682361002384F84330AB
:1040E000A8E723692A4649464046D0470130ABD06D
:1040F00023689B0713D4E068039B9842B8BF184617
:10410000A4E70123324649464046D04701309BD0C0
:104110000135E36803995B1AAB42F2DCEBE700255B
:1041200004F11906F5E700BF124900082349000809
:1041300001F0FF01102A2BDB10F0070F08D010F858
:10414000013B013A8B422DD010F0070F42B3F6D15C
:10415000F0B441EA012141EA014122F007047FF075
:1041600000070023F0E80256083C85EA010586EACC
:10417000010685FA47F5A3FA87F586FA47F6A5FA08
:1041800087F68EB9EED1F0BC01F0FF0102F0070214
:1041900032B110F8013B013A83EA010313B1F8D1BF
:1041A0000020704701387047002D06BF35460338A0
:1041B000073815F0010F07D1013015F4807F02BFD9
:1041C000013015F4C03F0130F0BC0138704700BF2A
:1041D000884210B501EB020402D98442234607D875
:1041E000431EA14208D011F8012B03F8012FF8E774
:1041F000024401468A4200D110BD13F8014D02F875
:10420000014DF7E7F8B5074614460E4621B9BDE85B
:10421000F8401146FFF748BB22B9FFF7F9FA2546E7
:104220002846F8BD00F014F8A0420FD221463846C7
:10423000FFF73AFB05460028F2D031462246FFF749
:10424000D1FA31463846FFF7E3FAE9E73546E7E7C2
:1042500051F8043C181F002BBCBF0B58C018704706
:104260002E2E2F73797374656D2F7372632F737491
:104270006D333266342D68616C2F73746D33326622
:104280003478785F68616C5F636F727465782E63F1
:10429000000000002E2E2F73797374656D2F7372DA
:1042A000632F73746D333266342D68616C2F7374B1
:1042B0006D3332663478785F68616C5F7263632E49
:1042C000630000002C2066756E6374696F6E3A207F
:1042D00000000000617373657274696F6E2022259F
:1042E0007322206661696C65643A2066696C65209A
:1042F000222573222C206C696E6520256425732588
:10430000730A000061626F727428292C2065786935
:1043100074696E672E2E2E003A74740053746163B4
:104320006B206672616D653A0A00000020523020F1
:104330003D2020253038580A00000000205231204E
:104340003D2020253038580A00000000205232203D
:104350003D2020253038580A00000000205233202C
:104360003D2020253038580A00000000205231320C
:10437000203D20253038580A00000000204C5220F3
:104380003D2020253038580A0000000020504320EE
:104390003D2020253038580A00000000205053529C
:1043A000203D20253038580A000000004653522F87
:1043B0004641523A0A0000002043465352203D2015
:1043C00020253038580A00002048465352203D200E
:1043D00020253038580A00002044465352203D2002
:1043E00020253038580A00002041465352203D20F5
:1043F00020253038580A0000204D4D464152203DBE
:1044000020253038580A00002042464152203D20E5
:1044100020253038580A00004D6973630A000000F7
:10442000204C522F4558435F52455455524E3D2023
:10443000253038580A0000005B4861726446617597
:104440006C745D0A000000005B4275734661756C18
:10445000745D0A005B55736167654661756C745DD8
:104460000A00000000000000000000000102030438
:104470000607080957726F6E6720706172616D657B
:10448000746572732076616C75653A2066696C6537
:10449000202573206F6E206C696E652025640D0ADF
:1044A000000000005F4572726F725F2052656365A5
:1044B00069766572333A20476F74207061636B656B
:1044C00074207769746820646573742E20257520C4
:1044D00066726F6D2053656E646572202564207767
:1044E0006974682053657120232564005F457272EA
:1044F0006F725F205265636569766572343A204752
:104500006F74207061636B657420776974682064D0
:104510006573742E2025752066726F6D2053656E4D
:104520006465722025642077697468205365712062
:104530002325640053656E646572313A206D616CA9
:104540006C6F63206661696C6564000048656C6C23
:104550006F2066726F6D2053656E64657231202323
:104560002575000053656E646572313A2073656E7F
:1045700074207061636B65742023257520746F202F
:1045800025750A0053656E646572313A206661696B
:104590006C656420746F2073656E640053656E648F
:1045A0006572323A206D616C6C6F63206661696C74
:1045B0006564000053656E646572323A2073656EFF
:1045C00074207061636B65742023257520746F20DF
:1045D00025750A0053656E646572323A206661691A
:1045E0006C656420746F2073656E6400526563654A
:1045F0006976657251756575652066756C6C2E20DF
:104600005061636B6574206C6F73742E0000000042
:104610005377697463683A205061636B6574202333
:10462000257520666F727761726465642066726FAB
:104630006D20257520746F202575200A000000006C
:104640005377697463683A2064726F707065642090
:104650007061636B6574202325752066726F6D2011
:1046600025750A004661696C656420746F20637269
:104670006561746520537769746368517565756504
:10468000310000004661696C656420746F206372BC
:1046900065617465205377697463685175657565E4
:1046A000320000004661696C656420746F2063729B
:1046B000656174652052656365697665723151750F
:1046C000657565004661696C656420746F2063726E
:1046D00065617465205265636569766572325175EE
:1046E0006575650053656E646572310053656E646F
:1046F00065723200537769746368000052656365C0
:10470000697665723300000052656365697665728B
:104710003400000049444C4500000000546D7251C3
:1047200000000000546D72205376630000202020AA
:104730002020202020202828282828202020202051
:104740002020202020202020202020202088101021
:10475000101010101010101010101010100404047D
:10476000040404040404041010101010101041413B
:104770004141414101010101010101010101010129
:10478000010101010101010110101010101042423D
:1047900042424242020202020202020202020202F9
:1047A0000202020202020202101010102000000099
:1047B00000000000000000000000000000000000F9
:1047C00000000000000000000000000000000000E9
:1047D00000000000000000000000000000000000D9
:1047E00000000000000000000000000000000000C9
:1047F00000000000000000000000000000000000B9
:1048000000000000000000000000000000000000A8
:104810000000000000000000000000000000000098
:104820000000000000000000000000000000000088
:104830000000000000000000000000000000000078
:104840000000000000000000000000000000000068
:104850000000000000000000000000000000000058
:104860000000000000000000000000000000000048
:104870000000000000000000000000000000000038
:104880000000000000000000000000000000000028
:104890005245454E54206D616C6C6F632073756397
:1048A000636565646564002F486F73742F686F6D6E
:1048B000652F696C672F576F726B2F61726D2D6E4C
:1048C0006F6E652D656162692D6763632D31302ED2
:1048D000322E312D312E312F736F75726365732F28
:1048E0006E65776C69622F6E65776C69622F6C6993
:1048F00062632F7374646C69622F72616E642E63DD
:1049000000232D302B2000686C4C006566674546FF
:104910004700303132333435363738394142434439
:1049200045460030313233343536373839616263C9
:044930006465660054
:08493400ACEBFF7F0100000065
:10493C007856341201FFFFFF100000000024F40031
:10494C00AAAAAAAA180000200000000050480008DB
:10495C00704800083048000800000000000000000B
:10496C00000000000000000000000000000000003B
:10497C00000000000000000000000000000000002B
:10498C00000000000000000000000000000000001B
:10499C00000000000000000000000000000000000B
:0C49AC000000000000000000325476986B
:040000050800018965
:00000001FF
